{
    "contractName": "HelloWorld",
    "abi": [
        {
            "inputs": [],
            "name": "answer",
            "outputs": [
                {
                    "internalType": "uint256",
                    "name": "",
                    "type": "uint256"
                }
            ],
            "stateMutability": "view",
            "type": "function"
        }
    ],
    "bytecode": "6080604052602a600055348015601457600080fd5b50607d806100236000396000f3fe6080604052348015600f57600080fd5b506004361060285760003560e01c806385bb7d6914602d575b600080fd5b603560005481565b60405190815260200160405180910390f3fea2646970667358221220937c2a5dc69e2e66e5bd8ca72da2a07ca65c608f3af305c9dd705b9f9adfd63464736f6c63430008130033",
    "sourcePath": "/home/iandix/Dev/playground/solidity/basel-examples/contracts/helloword.sol",
    "compiler": {
        "name": "solc",
        "version": "0.8.19+commit.7dd6d404"
    },
    "functionHashes": {
        "answer()": "85bb7d69"
    },
    "gasEstimates": {
        "creation": {
            "codeDepositCost": "25000",
            "executionCost": "22181",
            "totalCost": "47181"
        },
        "external": {
            "answer()": "2261"
        }
    }
}